:1000000012C02CC02BC02AC029C028C027C026C0BF
:1000100026C024C023C032C021C020C01FC01EC0C3
:100020001DC01CC01BC011241FBECFE5D4E0DEBF25
:10003000CDBF10E0A0E6B0E0E2E2F1E002C0059042
:100040000D92A236B107D9F720E0A2E6B0E001C0D8
:100050001D92A336B207E1F720D061C0D1CF1F9225
:100060000F920FB60F921124109260001DBC1CBCA1
:100070001EBC0F900FBE0F901F9018951F920F92ED
:100080000FB60F9211248F938CB1809362008F91E1
:100090000F900FBE0F901F901895B99A83E389B9FE
:1000A00080E98AB986E880BD84E089BF789490E0D1
:1000B00031E020E045E080916200813461F480917C
:1000C0006000813041F4911106C01FBC1DBC1CBCF6
:1000D0004EBD932FF0CF80916200823449F480911D
:1000E0006000813029F41DBC1CBC1EBC922FE3CFE4
:1000F00080916200823449F480916000811105C0D2
:1001000030936000C198922FD6CF809162008134E5
:1001100091F6809160008111CECFC19ACCCFF89436
:02012000FFCF0F
:020122000100DA
:00000001FF
